:020000040800F2
:10000000300C002029020008253B00089D2D000827
:10001000013700086F050008F54D000800000000DA
:100020000000000000000000000000003D43000848
:10003000CD0E0008000000009D4100085545000855
:10004000430200084302000843020008430200087C
:10005000430200084302000843020008430200086C
:10006000430200084302000843020008430200085C
:10007000430200084302000843020008430200084C
:100080001D0E000843020008430200084302000856
:10009000430200084302000843020008430200082C
:1000A000FD450008214600081546000809460008DD
:1000B000430200084302000843020008430200080C
:1000C00043020008430200084302000843020008FC
:1000D00043020008994D0008A54D0008BD4D0008D9
:1000E00043020008430200084302000843020008DC
:1000F00043020008430200084302000843020008CC
:1001000043020008430200084302000843020008BB
:100110000D490008194900082D460008430200084F
:10012000430200084302000843020008430200089B
:10013000430200084302000843020008430200088B
:10014000430200084302000843020008430200087B
:10015000430200084302000843020008430200086B
:10016000430200084302000843020008430200085B
:100170004302000843020008430200080000000098
:10018000430200084302000800F002F800F03CF8C7
:100190000AA090E8000C82448344AAF10107DA45E2
:1001A00001D100F031F8AFF2090EBAE80F0013F0F8
:1001B000010F18BFFB1A43F001031847705F0000DE
:1001C000905F0000103A24BF78C878C1FAD852076F
:1001D00024BF30C830C144BF04680C6070470000C1
:1001E0000023002400250026103A28BF78C1FBD840
:1001F000520728BF30C148BF0B6070471FB505F0DC
:1002000082FC1FBD10B510BD00F07CF91146FFF750
:10021000F5FF04F085FE00F09AF903B4FFF7F2FF52
:1002200003BC00F09DF900000948804709480047D9
:10023000FEE7FEE7FEE7FEE7FEE7FEE7FEE7FEE796
:10024000FEE7FEE704480549054A064B70470000F3
:10025000ED4500088901000830060020300C002020
:10026000300800203008002053EA020C00F06980BA
:100270002DE9F04B4FF00006002B1FBFB3FA83F5BA
:1002800003FA05F424FA05F65E4012BF1643B2FAEB
:1002900082F502FA05F4C5F120051EBF22FA05FC1D
:1002A00044EA0C04203556EA044C4FEA144418BFC3
:1002B000641C4FF000084FF00009904271EB030CF2
:1002C00039D3002919BFB1FA81F701FA07F6B0FA5C
:1002D00080F700FA07F6C7F120071EBF20FA07FCD7
:1002E00046EA0C062037B6FBF4FCA7EB0507103FE7
:1002F00007F01F0BCBF120060CFA0BFB2CFA06F6CD
:1003000044BFB3460026202FA4BF5E464FF0000B2B
:100310005BEA060C08BF4FF0010B19EB0B09ABFBB6
:10032000027C48EB0608C01B06FB02CC0BFB03CC8F
:1003300071EB0C01C1E70B46024641464846BDE859
:10034000F08B13B54FF000004FF00001AFF30080C9
:10035000BDE81C407047032A40F2308010F0030CC7
:1003600000F0158011F8013BBCF1020F624498BF08
:1003700011F801CB00F8013B38BF11F8013BA2F1A5
:10038000040298BF00F801CB38BF00F8013B11F020
:10039000030300F07C80083AC0F0088051F8043B69
:1003A000083A51F804CBA0E80810F5E7121D5CBF2D
:1003B00051F8043B40F8043BAFF30080D20724BF60
:1003C00011F8013B11F801CB48BF11F8012B24BFF4
:1003D00000F8013B00F801CB48BF00F8012B704743
:1003E0004FF000020429C0F0128010F0030C00F05E
:1003F0001B80CCF1040CBCF1020F18BF00F8012BDC
:10040000A8BF20F8022BA1EB0C0100F00DB85FEAA9
:10041000C17C24BF00F8012B00F8012B48BF00F875
:10042000012B70474FF0000200B5134694469646E4
:10043000203922BFA0E80C50A0E80C50B1F12001F7
:10044000BFF4F7AF090728BFA0E80C5048BF0CC0A5
:100450005DF804EB890028BF40F8042B08BF704703
:1004600048BF20F8022B11F0804F18BF00F8012B75
:10047000704770477047704710B500F03BF8006850
:1004800010BD10B5044600F035F8046010BD10B57D
:10049000203AC0F00B80B1E81850203AA0E818507C
:1004A000B1E81850A0E81850BFF4F5AF5FEA027C3D
:1004B00024BFB1E81850A0E8185044BF18C918C0AC
:1004C000BDE810405FEA827C24BF51F8043B40F84D
:1004D000043B08BF7047D20728BF31F8023B48BF32
:1004E00011F8012B28BF20F8023B48BF00F8012B70
:1004F0007047000000487047CC0500200048704756
:10050000CC0500207546FFF7F9FFAE4605006946A9
:10051000534620F00700854618B020B5FFF792FE3D
:10052000BDE820404FF000064FF000074FF00008F4
:100530004FF0000B21F00701AC46ACE8C009ACE875
:10054000C009ACE8C009ACE8C0098D46704710B5D9
:100550000446AFF300802046BDE81040FFF75DBEC3
:1005600001491820ABBEFEE7260002007047FEE7F7
:100570002DE9F041724C80462DED028B0F46207A1A
:10058000002510B1012806D0D4E0012020726D486A
:1005900090ED000ACCE094ED070A6B4A10EE101AB9
:1005A000002091420FDC10EE101A684A91420AD8DE
:1005B000B1EE400A3A46BDEEC00A414610EE100ABE
:1005C00000B200F059F994ED070A614A10EE101AD2
:1005D0004FF4A01611449FED5F8AB1420AD838EE5D
:1005E000400A3A464146BDEEC00A10EE100A00B27B
:1005F00000F042F994ED070A574A10EE101A114420
:10060000B1420CD8B1EE400A3A4630EE480A4146B3
:10061000BDEEC00A10EE100A00B200F02DF994ED04
:10062000070A4E4A10EE101A4FF4202611449FED8F
:100630004C8AB1420AD838EE400A3A464146BDEEED
:10064000C00A10EE100A00B200F016F994ED070A85
:10065000444A10EE101A1144B1420CD8B1EE400ACF
:100660003A4630EE480A4146BDEEC00A10EE100A86
:1006700000B200F001F994ED070A3B4A10EE101A9F
:100680004FF4A0269FED398A1144B1420AD838EEC2
:10069000400A3A464146BDEEC00A10EE100A00B2CA
:1006A00000F0EAF894ED070A314A10EE101A1144EE
:1006B000B1420CD8B1EE400A3A4630EE480A414603
:1006C000BDEEC00A10EE100A00B200F0D5F894EDAD
:1006D000070A284A10EE101A9FED278A1144B142EA
:1006E0000AD838EE400A3A464146BDEEC00A10EE3E
:1006F000100A00B200F0C0F894ED070A1F4A10EE8D
:10070000101A1144B1420CD8B1EE400A3A4630EE0C
:10071000480A4146BDEEC00A10EE100A00B200F0D1
:10072000ABF8012806D1012500209FED150A2072A3
:1007300084ED070A2846BDEC028BBDE8F08100007D
:10074000380000201C00002000002041000020C1D3
:10075000000056BD0000B4420000563D0000D1BC70
:10076000000034430000D13C00807BBC0000874384
:1007700000807B3C00804EBC0000B44300804E3CB7
:10078000000000002DE9F05F07460E46784301FBAC
:1007900006002DED048B1C46924604F064FE8B4649
:1007A00080464BEC100B04F07DFB9FED319B51EC30
:1007B000100B53EC192B04F081FE41EC180BF01BCD
:1007C000054603F0ABF900FB0AF004F063FE53ECBE
:1007D000182B04F0C1FC04F017FE81464BEC108B83
:1007E00004F060FB53EC192B51EC100B04F066FE87
:1007F00041EC180BF01903F091F900FB0AF004F03A
:1008000049FE53EC182B04F0A7FC04F0FDFDB919C8
:100810005FEA0108E3B203D5C8F10001884640420F
:1008200002B29246012003F0B7F8E3B241465246C5
:10083000042003F0B1F8002DE3B204D40FFA89F2DA
:100840002946164605E0BD1BC9F1000002B2164656
:100850002946022003F0A0F8E3B2294632460320DD
:1008600003F09AF8BDEC048BBDE8F05F03F07AB8B2
:10087000666666666666F63F2DE9F0414F4C504D60
:1008800017462DED028B0026A27995ED000A12B1D4
:10089000012A23D08BE00121A1715A2802DA10F13C
:1008A0005A0F12DC00EE100AD4ED060AB8EEC00AA8
:1008B00030EE800A84ED050A00EE100AB8EEC00A98
:1008C00030EE800A84ED060A71E000EE900AF8EE40
:1008D000E00A30EE200A84ED050A68E0D4ED050A4E
:1008E000607930EE600A00EE900AF8EE600A20EEC1
:1008F000208A00EE101AB8EE400AB4EEC08AF1EE7B
:1009000010FA04DD00EE101AB8EE408A0DE04842FD
:1009100000EE100AB8EEC00AB4EEC08AF1EE10FA8A
:1009200003D200EE100AB8EEC08AFAB2FDEEC88A11
:1009300018EE900A01B2012003F0C2F8B1EE480AA5
:10094000FAB2BDEEC08A18EE100A01B2022003F01E
:10095000B7F818EE900AFAB201B2032003F0B0F82B
:1009600018EE100AFAB201B2042003F0A9F802F05E
:10097000F9FFD4ED050AB0EE081A95ED000A70EE05
:10098000C11A0020F4EEC01AF1EE10FA14D870EE7D
:10099000810AF4EEC00AF1EE10FA0DDBE179491C90
:1009A000C9B2E1710A2902D3E0710126A071304673
:1009B000BDEC028BBDE8F081E071F8E73800002063
:1009C0001C000020A0F130010A2907D2DFE801F065
:1009D0000507090B0D0F1113151700207047012093
:1009E000704702207047032070470420704705209D
:1009F000704706207047072070470820704709207D
:100A0000704700002DE9F05FEE4CFA206422A178D7
:100A1000E6234FF0960A41B1B42501290DD0D22624
:100A2000022913D003291DD029E0A082A4F816A022
:100A3000A4F818A06283322110E04FF48C71A182D7
:100A4000E582A4F818A06283372107E04FF496717D
:100A5000A182E682A4F818A062833C21A183E083EE
:100A600023840CE04FF4A070A082E68225836E20E0
:100A700060834120A0838000E083EB202084DFF8A6
:100A80004883DFF848E3012798F800000EF1640678
:100A9000002506F1C809B8B1DFF834C30EF80070BC
:100AA000DFF830B3BCF8001026F81010BBF80020B7
:100AB00029F8102020702182628288F80050ACF85A
:100AC0000050ABF8005067709EF80100DFF8088313
:100AD000F34658B3C1484FF47A710180E07810B101
:100AE00001280FD022E0B9F90200A28AC101B6F9AB
:100AF0000200E38AC00112B2FFF744FE88F80070DA
:100B0000E77013E0B6480078012802D098F800009A
:100B100060B988F80050E5708BF801504FF6FF730C
:100B20000222B0A1B04802F0DFF865709BF8020025
:100B3000C8B1207910B101280AD014E0B6F9040038
:100B4000628BA18BFFF798FE01280CD127710AE078
:100B500025718BF802504FF6FF730222A3A1A24821
:100B600002F0C2F865709BF80300D8B3607910B149
:100B7000012813D036E0B6F9060010B1012809D1DA
:100B800004E0218CE08B02F0D7F903E0218CE08BAC
:100B900002F006F9B079A071677123E0B6F906009A
:100BA000A17988420ED010B1012809D104E0218C2E
:100BB000E08B02F0C1F903E0218CE08B02F0F0F849
:100BC000B079A0718A48007801280BD165718BF843
:100BD00003504FF6FF73022286A1834802F084F887
:100BE0006570A5719BF80400E0B1E07910B10128AF
:100BF0000DD017E0B6F9080020B1012802D011E0AD
:100C0000E7710FE002F068F90128F9D00AE0E57118
:100C10008BF804504FF6FF73022277A1724802F05E
:100C200063F865709BF8050010B3B07A607299F8AC
:100C30000A10A172227A12B1012A1AD026E0238C5E
:100C4000E28B00F091F9012804D0022804D0032897
:100C500007D01BE0277219E04FF6FF73022267A14D
:100C600003E04FF6FF73022265A15F4802F03CF8F3
:100C70000CE025726572A5728BF805504FF6FF7374
:100C8000022260A1584802F02FF865709BF8060018
:100C900048B3307B207399F80C106173E27A12B17B
:100CA000012A13D01FE0238CE28B03F079FA01288C
:100CB00002D0022802D016E0E77214E04FF6FF736C
:100CC000022251A1484802F00FF80CE0E5722573AA
:100CD00065738BF806504FF6FF7302224BA1424812
:100CE00002F002F865709BF8070078B1618B208BE9
:100CF000FFF73EFC012809D18BF807504FF6FF7330
:100D0000022243A1384801F0EFFF65709BF808000C
:100D1000B0B1B9F81010308A02F04EFA322000F06B
:100D2000E9F8B9F81010308A02F046FA8BF808504A
:100D30004FF6FF73022237A12B4801F0D5FF6570F3
:100D40009BF80910002928D0B6F91220052A07DCE3
:100D5000B9F91210052903DC204BA3F800A003E029
:100D60001E494FF4C8730B80A17BC1B1012914D176
:100D70001B490978012903D098F8001000290CD1EB
:100D800088F80050A5738BF809504FF6FF730222C4
:100D900021A1154801F0A8FF6570BDE8F09FB9F9E1
:100DA0001200638B00EB800101EBC00102EB8200BB
:100DB00000EBC200228B12B2FFF7E4FCA77388F8A5
:100DC0000070EAE768000020A9000020D803002096
:100DD000B0000020B2000020910000209800002008
:100DE000380000203031000098010020303200002F
:100DF0003A00002030330000303400003935000064
:100E0000383500003035000039360000303600003B
:100E1000303700003038000030390000014800F061
:100E2000E5B90000EC02002001681823CAB2103AAC
:100E3000B2FBF3F2054B6FF30901032A9B5CC36518
:100E400000D9091D81650846704700001A5B00083B
:100E500010B5014600208B698A6A4FF0C07453B107
:100E6000B3F5005F15D072B1012A0CD0022A0AD066
:100E7000032A09D104E01AB1012A06D0022A03D1BB
:100E8000C96AC90100D5012010BDC96AA142FAD0C2
:100E900010BD002AF7D0012AF2D0022AF3D0032A8B
:100EA000F3D010BD30B50468256825F48025256091
:100EB000046863608368402B036803D0996000680E
:100EC000C26030BD9A600068C16030BD70470021CB
:100ED00001E000BF491C8142FBD3704710B50446B6
:100EE000002000F03FFF0249E008087010BD00003C
:100EF000BC0000204FF4077170B5B0FBF1F2B0FBFD
:100F0000F1F501FB1204094E03E0304600F010F841
:100F10006D1E002DF9D1002C06D04FF47A7060437D
:100F2000BDE8704000F004B870BD0000603D0800EE
:100F30000B49097848434FF0E021401E48610022E8
:100F40008A61086940F0010008610869C30701D09F
:100F5000C003FAD5086920F0010008618A61704772
:100F6000BC00002072B6FEE72DE9F05F0F466F4C23
:100F700001467320E0800026A0789A46934601251A
:100F800008B3DFF8AC812246002392F800C098F83D
:100F9000002001281ED0022823D0052704284ED087
:100FA000032850D0052854D0062866D007286DD0D5
:100FB000082872D0092871D00A2870D00B286FD069
:100FC0000C286ED0AFE01946104601F0B5FF257031
:100FD000A570A8E0012A02D0BCF1000F21D10220A7
:100FE0008EE021B1012904D0022904D006E00020BE
:100FF00002E0012000E0022003F0FEFE012002F0EA
:1010000033F88146012001F067FFB9F1010F08D1E3
:10101000012806D198F80000012802D117B1012F4C
:1010200007D080E05146584601F0BAFE25700320F3
:1010300075E05146584601F08FFF04206FE0012A09
:1010400071D1A7705DE0012AFBD0BCF1000FF8D090
:1010500069E021B1012904D0022904D006E0002072
:1010600002E0012000E0022003F0C6FE002001F0B3
:10107000FBFF012857D1062035E0012A02D0BCF140
:10108000000F50D10720A07002263AE0002549B198
:10109000012909D0022909D00CE019E01CE029E05F
:1010A00031E03EE0002002E0012000E0022003F0F9
:1010B000A3FE0546002001F00FFF012833D1012DCA
:1010C00031D10820A0705146584601F08DFE2AE02B
:1010D000012A28D1092022E0012001F0C5FF0128C2
:1010E00021D103260A20A0705146584601F024FF62
:1010F000257018E0012A02D0BCF1000F13D10B209B
:10110000A07023700FE0002003F076FE054601205A
:1011100001F0E2FE012D06D1012804D10C20A070BF
:1011200001E0A37001263046BDE8F09F900000204A
:101130003A0000202DE9F0410446876D00F0D2FA14
:10114000064694F835000025022806D08020606508
:1011500084F834500120BDE8F0812068016821F056
:10116000160101602068416921F080014161206C15
:1011700008B9A06C20B12068016821F00801016065
:101180002068016821F0010101600CE000F0AAFA7A
:10119000801B052807D920206065032084F83500CE
:1011A00084F83450D7E720680068C007EED194F87F
:1011B0005C103F208840B860012084F8350084F836
:1011C00034500020C7E790F83510022903D0802161
:1011D000416501207047052180F8351000680168DD
:1011E00021F0010101600020704700002DE9F84363
:1011F00004464FF00009CDF8009063484FF41651B3
:10120000A56D0068B0FBF1F72E6894F85C1008201B
:1012100000FA01F131420FD021680A6852070BD55C
:101220000A6822F004020A6094F85C108840A86002
:10123000606D40F00100606594F85C104FF00108AB
:1012400008FA01F0304208D021684969090604D53E
:10125000A860606D40F00200606594F85C100420A6
:101260008840304208D021680968890704D5A86001
:10127000606D40F00400606594F85C1010208840B8
:10128000304218D021680968090714D5A860206881
:101290000168490304D50068000308D5A16C07E084
:1012A0000168C90503D4016821F008010160216CBF
:1012B00009B12046884794F85C10202088403042CD
:1012C00031D021680968C9062DD5A86094F8350089
:1012D00005282068016806D0490347D50068000347
:1012E0001DD4616C1CE021F0160101602068416989
:1012F00021F080014161206C08B9A06C20B1206808
:10130000016821F00801016094F85C103F208840DA
:10131000A86084F8358084F83490216D1FE0E16B7B
:1013200009B120468847606D00282BD0606DC0074A
:1013300014D0052084F835002068016821F00101EF
:1013400001600098401C0090B84203D820680068F3
:10135000C007F6D184F8358084F83490E16C002918
:1013600010D001B02046BDE8F04308470168C90528
:10137000D5D4016821F01001016084F8358084F82B
:101380003490CCE7BDE8F883140000202DE9F0414B
:10139000044600F0A7F906465CB1022084F8350047
:1013A000002584F834502068016821F001010160B3
:1013B0000DE00120BDE8F08100F094F9801B0528C4
:1013C00005D920206065032084F83500F2E7206805
:1013D0000068C007F0D12268116820480140D4E9B4
:1013E00001031843D4E903363343184363691843B0
:1013F000A3691843E3691843236A18430843616AE1
:10140000042903D1D4E90B13194308431060206861
:101410004069666A20F0070130460E430127042820
:101420000CD1A06A0643E06A40B12046FFF710FDE8
:1014300020B14020606584F83570BAE720684661C5
:101440002046FFF7F1FC94F85C203F219140816039
:10145000656584F835700020ACE700003F8010F02F
:101460002DE9F0410446866D90F8340000250128EE
:101470000DD0012084F8340094F835700020012F3D
:1014800007D084F8340002252846BDE8F081022008
:10149000FBE7022784F8357060652046FFF702FD00
:1014A00094F85C103F208840B0602068016841F0EB
:1014B00016010160206C20B12068016841F008012C
:1014C00001602068016841F001010160DCE7000073
:1014D0002DE9F84FDFF8BCA10022012503264FF0CB
:1014E0000F090AF1040BAAF1040E00BF0B6805FAFC
:1014F00002F42340A34270D10F7907F00307012FB4
:1015000001D0022F16D187684FEA420806FA08FC7C
:1015100027EA0C07D1F80CC00CFA08FC4CEA070CBF
:10152000C0F808C04768A7430C79C4F3001494407E
:101530003C4344600C79E443A4070AD0C4684FEAF2
:10154000420C06FA0CF7BC438F6807FA0CF72743E6
:10155000C7600C7904F00304022C12D1D40800EB0C
:10156000840CDCF820405707FF0E09FA07F824EA3C
:101570000804D1F8108008FA07F848EA0408CCF803
:10158000208004684FEA420C06FA0CF7BC430F793E
:1015900007F0030707FA0CF7274307604C6814F4B9
:1015A000403F70D03C4C276847F480472760246850
:1015B00022F0030704F480440094384C07EB040C39
:1015C000DCF8084897074FEA177809FA08F7BC4390
:1015D000334FB84202D1002724E054E0314FB842E3
:1015E00001D101271EE0304FB84201D1022719E096
:1015F0002E4FB84201D1032714E02D4FB84201D13C
:1016000004270FE02B4FB84201D105270AE02A4FEB
:10161000B84201D1062705E0284FB84201D107277B
:1016200000E0082707FA08F72743CCF80878DAF82B
:1016300000405746D1F804C09C435FEACC2C00D54B
:101640001C433C60DBF800405F46D1F804C09C437B
:101650005FEA8C2C00D51C433C60DEF800407746E6
:10166000D1F804C09C435FEA8C3C00D51C433C602D
:10167000084F083F3C68D1F804C09C435FEACC3C6B
:1016800000D51C433C60521C102AFFF42FAFBDE86C
:10169000F88F0000083C014044380240003001400F
:1016A000000002400004024000080240000C02401A
:1016B000001002400014024000180240001C0240CA
:1016C0000069084000D001207047426921EA020306
:1016D0000A4043EA0241816170470AB18161704763
:1016E0000904FBE7014880687047000008000020FB
:1016F0000248816802781144816070470800002028
:101700000B4810B5016841F400710160016841F4B3
:1017100080610160016841F480710160032000F084
:101720006FF80F2000F006F800F024F8002010BD3C
:10173000003C024070B50D4D04464FF47A71287894
:10174000B1FBF0F00A490968B1FBF0F000F016FBBC
:1017500048B9102C07D200222146501E00F030F864
:1017600000206C6070BD012070BD000008000020EA
:10177000140000200A4808B5016841F48041016066
:10178000006800F4804000900548001F016841F0A7
:1017900080510160006800F08050009008BD00009A
:1017A00044380240002809DB00F01F02012191406B
:1017B0004009800000F1E020C0F8001170470000EF
:1017C000F0B40E4B1B680C46C3F30223C3F10705AC
:1017D000042D00D90425191D072901D2002300E09A
:1017E000DB1E012606FA05F1491E214099409E4064
:1017F000761E16403143F0BC03F044BB0CED00E014
:10180000064900F0070208684FF6FF03184040EA57
:101810000220034A10430860704700000CED00E00E
:101820000000FA052DE9F0470E46050065D0DFF807
:101830001481D8F80000F7B200F00700B04207D2D8
:1018400088F80070D8F8000000F00700B04254D1CA
:1018500028683D4C810712D5400703D5206840F425
:10186000E05020602878000703D5206840F46040ED
:1018700020602068A96820F0F000084320602878E4
:10188000C0072DD0304968680839012812D00228D5
:1018900013D0032811D00968890700292DDA21689F
:1018A00021F0030101432160FFF71CFF814641F253
:1018B000883A0EE009688903EFE709688901ECE7D7
:1018C000FFF710FFA0EB0901514502D90320BDE845
:1018D000F0872068696800F00C00B0EB810FEFD151
:1018E000D8F80010404601F00701B14207D907704F
:1018F000006800F00700B04201D00120E7E7287837
:10190000400705D52068E96820F4E05008432060CE
:101910002878000706D52068296920F4604040EA4D
:10192000C100206000F038F82168084AC1F30311B3
:10193000515CC8400649086006480068FFF7FAFE97
:101940000020C4E7003C024008380240225B000847
:10195000140000200C0000200448054900680968B4
:10196000044AC1F38221515CC84070471400002032
:1019700008380240325B00080448054900680968DD
:10198000044AC1F34231515CC84070471400002042
:1019900008380240325B0008154810B5006810F0A6
:1019A0000C02144813D04110042A0FD0082A0ED17B
:1019B0000F4C241F2268236802F03F025B0207D508
:1019C0002068C0F38810A0FB010106E0084610BDA6
:1019D0002168C1F38811A1FB00010023FEF744FC3C
:1019E0002168C1F30141491C4900B0FBF1F010BD71
:1019F000083802400024F4002DE9F84F04006ED0AE
:101A00002078DFF84C93C007A9F104054AD009F10A
:101A100004000168C1F38101012908D00068C0F306
:101A2000810002280AD1D9F80000400206D52868B2
:101A3000800337D560680028E1D033E06068B0F5F6
:101A4000803F10D0B0F5A02F286810D020F480304F
:101A50002860286820F4802028606068A8B1FFF71B
:101A600041FE06460DE0286840F48030F4E740F47B
:101A700080202860F7E700BFFFF734FE801B642852
:101A800073D828688003F7D50CE0FFF72BFE0646D5
:101A900005E000BFFFF726FE801B6428F0D8286809
:101AA0008003F7D42078DFF8AC8280074FF0000A7B
:101AB0003ED5A748001D016811F00C0F08D0006842
:101AC000C0F3810002280BD1D9F80000400207D4EE
:101AD0002868800716D5E068012800D112E033E1BC
:101AE000E068B8B10120C8F80000FFF7FBFD06462A
:101AF00005E000BFFFF7F6FD801B0228C0D828686C
:101B00008007F7D52868216920F0F80040EAC10075
:101B100028600DE0C8F800A0FFF7E4FD064604E0E9
:101B2000FFF7E0FD801B02281FD828688007F7D444
:101B30002078000722D5864F87486169703771B1D8
:101B400001210160FFF7CEFD064604E0FFF7CAFD64
:101B5000801B022809D838688007F7D50EE0C0F846
:101B600000A0FFF7BFFD064605E082E0FFF7BAFDE3
:101B7000801B02287DD838688007F7D4207840077A
:101B800068D5DFF8CCB100270BF13C0BDBF8000087
:101B9000C0000BD4DBF8001041F08051CBF80010EE
:101BA000DBF80000012700F0805000906B4E306899
:101BB000C00510D4306840F480703060FFF792FDAB
:101BC000009005E0FFF78EFD0099401A022850D8DA
:101BD0003068C005F6D55E4EA0686C3601280FD07F
:101BE0000528306810D020F001003060306820F007
:101BF00004003060A068B8B1FFF774FD00900FE0FA
:101C0000306840F00100F4E740F004003060F7E78E
:101C1000FFF768FD0099411A41F28830814266D889
:101C200030688007F4D50EE0FFF75CFD009007E018
:101C3000FFF758FD0099411A41F28830814256D889
:101C400030688007F4D42FB1DBF8001021F0805108
:101C5000CBF80010A069C8B33D49091D0968C1F35C
:101C6000810102294AD00228504607D0C8F86000F6
:101C700000E03CE0FFF736FD04463BE04746C8F88D
:101C80006000FFF72FFD064605E000BFFFF72AFDC5
:101C9000801B02282BD828688001F7D4D4E90701DB
:101CA0000843A16A2E4A490802EB0141626A41EAEF
:101CB0008211084394F82C1040EA0161C9F8001021
:101CC00001203866FFF70EFD044606E03EE000BF47
:101CD000FFF708FD001B022809D828688001F7D506
:101CE00034E000BFFFF7FEFC001B022802D90320EE
:101CF000BDE8F88F28688001F4D427E00128F7D0E8
:101D0000D9F80000E26900F4800191421CD1226AF6
:101D100000F03F01914217D147F6C071626A01405D
:101D2000B1EB821F10D1A26A4FF0FF3300F44031B3
:101D300003EB5202B1EB024F06D194F82C1000F0E5
:101D40007060B0EB016F01D00120D1E70020CFE738
:101D50000438024000004742800E474200700040B5
:101D60000000FFFF4FF0E0210428086903D020F0B5
:101D700004000861704740F00400FAE710B5401E07
:101D8000B0F1807F01D3012010BD4FF0E0246061ED
:101D90000F21601703F076F80020A0610720206172
:101DA000002010BD7047704710B590F83C20012A04
:101DB00022D0012280F83C20CA688C6822F440724C
:101DC00022434C6822F4806222430C6822F40062B1
:101DD00022430C6922F4805222434C6922F40052BF
:101DE0002243C969002322F480420A4301684A64FD
:101DF00080F83C30002010BD022010BD70B590F876
:101E00003C20012A32D0012480F83C40022280F894
:101E10003D2003685A689D6822F070060A683243C4
:101E20005A60134B02689A4214D0B2F1804F11D01D
:101E3000104B9A420ED0104B9A420BD00F4B9A4245
:101E400008D00F4B9A4205D00E4B9A4202D00E4B4F
:101E50009A4204D1496825F080031943916080F8C3
:101E60003D40002180F83C10084670BD022070BD46
:101E7000000001400004004000080040000C004049
:101E800000040140004001400018004010B504006B
:101E900003D094F83D0010B107E0012010BD0020F0
:101EA00084F83C00204600F01FF8022084F83D0032
:101EB000211D206802F0C0FB012084F8460084F850
:101EC0003E0084F83F0084F8400084F8410084F824
:101ED000420084F8430084F8440084F8450084F804
:101EE0003D00002010BD000008B501682648814271
:101EF00027D12648016841F00101016000680022F5
:101F000000F00100009011461820FFF759FC18203E
:101F1000FFF748FC002211461920FFF751FC192059
:101F2000FFF740FC002211461A20FFF749FC1A2057
:101F3000FFF738FC002211461B20FFF741FC1B2055
:101F40001EE01248124A001F914208D1016841F078
:101F500002010160006800F00200009008BD0D4A17
:101F60009142FBD1016841F010010160006800223C
:101F700000F01000009011463620FFF721FC3620BB
:101F8000BDE80840FFF70EBC0000014044380240A5
:101F9000000400400010004090F83D10012901D0DD
:101FA00001207047022180F83D100168CA6842F0A4
:101FB0000102CA6000681149884214D0B0F1804F14
:101FC00011D00F4988420ED00E4988420BD00E49DD
:101FD000884208D00D49884205D00D49884202D078
:101FE0000C49884204D1816801F00701062903D019
:101FF000016841F0010101600020704700000140CC
:102000000004004000080040000C004000040140B3
:10201000004001400018004070B5044690F83C00B4
:102020000025012817D0012684F83C60022084F89E
:102030003D002068826822F0770222F47F428260AD
:102040000868502838D00DDC20284FD005DC90B32C
:10205000102811D14AE0022070BD302846D0402817
:102060000AD13BE060282FD070280DD0B0F5805FFA
:1020700003D0B0F5005F12D0012584F83D60002048
:1020800084F83C00284670BDCB68D1E90121206866
:1020900002F043FB2068816841F0770109E0CB68DA
:1020A000D1E90121206802F038FB2068816841F401
:1020B00080418160E1E719E0CA684968206802F060
:1020C00001FC5021206806E0CA684968206802F0D7
:1020D0000AFC6021206802F02AFBCEE7CA68496842
:1020E000206802F0EFFB40212068F4E722680146F7
:1020F0001046F0E7704770B50446006801694FF07C
:102100000005C943890715D4C168C943890711D49B
:10211000E91E016101202077206880698007204640
:1021200002D0FFF7E7FF04E000F017F9204600F0C7
:10213000D7F9257720680169C943490717D4C168D1
:10214000C943490713D46FF00401016102202077CD
:102150002068806910F4407F204602D0FFF7CAFF54
:1021600004E000F0FAF8204600F0BAF9257720687C
:102170000169C943090716D4C168C943090712D4C4
:102180006FF008010161042020772068C069800792
:10219000204602D0FFF7AEFF04E000F0DEF8204654
:1021A00000F09EF9257720680169C943C90617D454
:1021B000C168C943C90613D46FF01001016108203A
:1021C00020772068C06910F4407F204602D0FFF7D6
:1021D00091FF04E000F0C1F8204600F081F9257776
:1021E00020680169C943C90708D1C168C943C90743
:1021F00004D1891E0161204600F0D8F920680169E8
:10220000C943090609D4C168C943090605D46FF05A
:10221000800101612046FFF7C5FD20680169C943BF
:10222000490609D4C168C943490605D46FF0400185
:102230000161204600F006FA20680169C943890659
:102240000BD4C168C943890607D46FF0200101612E
:102250002046BDE87040FFF7A6BD70BD30B587B021
:10226000044614216846FEF7DDF8214A216800245F
:1022700020480225914212D1016841F0100101600D
:102280000068694600F0100005904FF4D4400090BB
:10229000CDE901540120CDE90340174824E0174A55
:1022A000914223D1016841F001010160016801F010
:1022B00001010591016841F0020101600068694671
:1022C00000F002000590C0200090CDE901540C48B8
:1022D000CDE90345FFF7FCF803200090CDE9015458
:1022E00069460848CDE90345FFF7F2F807B030BD6D
:1022F000000001403038024000100240000400405D
:10230000000002400004024070B5044690F83C0012
:10231000002501280FD0012084F83C006AB1042A6E
:102320000FD0082A11D00C2A13D00125002084F8E0
:102330003C00284670BD022070BD206802F000FA03
:10234000F4E7206802F02CFAF0E7206802F05EFA69
:10235000ECE7206802F08EFAE8E7704710B5040059
:1023600003D094F83D0010B107E0012010BD00201B
:1023700084F83C00204600F01EF8022084F83D005E
:10238000211D206802F058F9012084F8460084F8E5
:102390003E0084F83F0084F8400084F8410084F84F
:1023A000420084F8430084F8440084F8450084F82F
:1023B0003D00002010BD704770B5044690F83C0009
:1023C00000260D4601280FD0012084F83C006AB198
:1023D000042A1DD0082A2FD00C2A3FD00126002025
:1023E00084F83C00304670BD022070BD206802F0C9
:1023F000A7F92068816941F008018161206881693D
:1024000021F004018161206881692A69114311E08A
:10241000206802F0C5F92068816941F4006181619A
:102420002068816921F480618161206881692A695D
:1024300041EA02218161D2E7206802F0E7F92068D1
:10244000C16941F00801C1612068C16921F004013E
:10245000C1612068C1692A69114311E0206802F056
:1024600009FA2068C16941F40061C1612068C1694D
:1024700021F48061C1612068C1692A6941EA0221B1
:10248000C161ACE710B5040003D094F83D0010B171
:1024900007E0012010BD002084F83C00204600F039
:1024A0001EF8022084F83D00211D206802F0C4F8C7
:1024B000012084F8460084F83E0084F83F0084F848
:1024C000400084F8410084F8420084F8430084F816
:1024D000440084F8450084F83D00002010BD70479A
:1024E0007047000010B50446022249B104290ED0FD
:1024F000082913D094F84100012816D0012010BDFE
:1025000094F83E000128F9D184F83E200FE094F8B9
:102510003F000128F2D184F83F2008E094F8400001
:102520000128EBD184F8402001E084F84120012209
:10253000206802F0E5F816492068164A884201D062
:10254000904203D1436C43F40043436420688842C3
:1025500013D0B0F1804F10D00F4988420DD00F49F1
:1025600088420AD00E49884207D0904205D00D49D2
:10257000884202D00C49884204D1816801F00701E9
:10258000062903D0016841F001010160002010BD5F
:102590000000014000040140000400400008004029
:1025A000000C00400040014000180040204910B5D8
:1025B00088423CD11F4C00202178012901D051B123
:1025C0000AE0A188491C89B2A180E288914203D324
:1025D000A080207000E0A0806178012901D051B175
:1025E0000AE06189491C89B261812289914203D341
:1025F0006081607000E06081A189491C89B2A1817D
:10260000642910D3A08104210B48FFF75EF89FEDE9
:102610000B0B53EC102B94ED040B51EC100B02F050
:10262000F3FCC4E90401BDE8104001F089BE10BD0F
:1026300050010020900000200014024079E926316A
:1026400008AC7C3F7047704710B50446006840698D
:1026500094F83D10C0F3C010212911D180B1206839
:10266000143050E8001F21F0800140E80012002AD9
:10267000F5D1606B08B1FEF75DFD204602F0F4F97C
:102680002068406994F83E10C0F38010222911D1CF
:1026900080B12068143050E8001F21F0400140E86C
:1026A0000012002AF5D1A06B08B1FEF743FD2046C9
:1026B00002F0B3F9002010BD70470000F8B50168C2
:1026C00004460868CA684B6910F00F0F4FF0000508
:1026D00059D003F0010602F49077374365D0C10763
:1026E00005D0D10503D5216C41F0010121644107DA
:1026F00005D5D90703D0216C41F00201216481077F
:1027000005D5D90703D0216C41F0040121640107EC
:1027100007D502F02001314303D0216C41F00801BC
:102720002164216C00293AD0800604D5900602D598
:10273000204602F0A7F920684069216CC0F38010A0
:10274000090700D460B3204602F067F920684069A9
:10275000400621D52068143050E8001F21F04001C8
:1027600040E80012002AF5D1A06BA8B16C490165C0
:10277000A06BFEF728FD002811D0A06B016D01B001
:10278000BDE8F040084783060FD593060DD52046D7
:10279000BDE8F84002F076B92046FFF78DFFF8BD9E
:1027A0002046FFF789FF2564F8BD266B2023012E04
:1027B00079D1C60677D5D60675D5086848680090E1
:1027C0004869400640D5A16B086840680004000CC9
:1027D000EAD0A28D8242E7D9E085C869B0F5807F52
:1027E0002DD020680C3050E8001F21F4807140E8A3
:1027F0000012002AF5D12068143050E8001F21F0A3
:10280000010140E80012002AF5D12068143050E898
:10281000001F21F0400140E80012002AF5D184F8A1
:102820003E30256320680C3050E8001F21F0100175
:1028300040E80012002AF5D1A06BFEF77BFCA08DCA
:10284000E18D401A81B229E0A08DE18D401A81B25C
:10285000E08D0028A8D00029A6D020680C3050E8D0
:10286000002F22F4907240E80026002EF5D1206857
:10287000143050E8002F22F0010240E80026002E1C
:10288000F5D184F83E30256320680C3050E8002FE5
:1028900022F0100240E80023002BF5D12046FFF77C
:1028A000D2FEF8BDFFE705062BD5150629D594F80D
:1028B0003D002128F5D1A068B0F5805F01D12069E5
:1028C000B0B1206A411C2162216800784860E08C28
:1028D000401E0004000CE084E3D12068C16821F0B0
:1028E0008001C1602068C16841F04001C160D8E743
:1028F000206A0088C0F308004860206A801C2062BB
:10290000E5E74006CDD55006CBD5CA68204622F073
:102910004002CA6084F83D3000F03FFAC1E7000091
:102920002549000810B5114A016891421CD1FFF7F2
:102930008BFE32210E48FDF753FD32220D490C4823
:10294000FDF709FD0C490120087032210948FDF707
:1029500047FD32220749094800F070F9002803D0EA
:10296000BDE81040FEF7FEBA10BD00000044004074
:102970004C0300207E030020180000206402002089
:1029800070B5040004D094F83D00002510B106E0B5
:10299000012070BD84F83C50204600F023F824202C
:1029A00084F83D002068C16821F40051C1602046D0
:1029B00002F0C8F82068016921F4904101612068A3
:1029C000416921F02A0141612068C16841F4005148
:1029D000C1602564202084F83D0084F83E0000207A
:1029E00070BD00002DE9F04786B08046142168468E
:1029F000FDF718FD8749DFF818C2D8F80030002429
:102A0000844A10390225032608278348DFF80CA2E0
:102A1000634531D1136843F400231360126802F454
:102A2000002205920A6842F001020A600A6802F078
:102A3000010205920A6842F004020A60096802ABCA
:102A400001F0040105910121CDE9001583E8D000D2
:102A50006946FEF73DFDA802CDE9000502AB6946D7
:102A600083E8D0005046FEF733FD002211463420A3
:102A7000FEF7A6FE342038E0DFF8A4C1DFF8A49109
:102A8000634537D1106840F480101060106800F47E
:102A900080100590086840F004000860086800F0A5
:102AA00004000590086840F008000860086802AB60
:102AB00000F0080005904FF48050CDE9000583E850
:102AC000D00069465046FEF703FD0420CDE900051D
:102AD00002AB694683E8D0004846FEF7F9FC0022C5
:102AE00011463520FEF76CFE3520FEF75BFE06B082
:102AF000BDE8F087DFF830C10727634522D1454A9A
:102B0000121D136843F010031360126802F01002E4
:102B100005920A6842F001020A60096802AA01F0FF
:102B2000010105914FF4C061CDE9001582E8D000A4
:102B30006946FEF7CDFC002211462520FEF740FE37
:102B40002520D2E7DFF8E4C063453BD1136843F4A6
:102B500000331360126802F4003205920A6842F0F2
:102B600001020A60096802AB01F0010105910C2124
:102B7000CDE9001583E8D0006946FEF7A9FC2D4D8C
:102B80002B4828604FF00060C5E901044014C5E9F6
:102B9000034080106C61C5E906404FF44030C5E940
:102BA00008042846FEF7F2FB08B1FEF7DBF9C8F887
:102BB0003850002211462620C5F83880FEF700FE66
:102BC000262092E71C48834291D1106840F480206F
:102BD0001060106800F480200590086840F008003C
:102BE0000860086802AB00F0080005904FF44070E0
:102BF000CDE9000583E8D00069464846FEF768FC49
:102C0000002211462720FEF7DBFD27206DE700009C
:102C1000004C0040403802400000024000080240E2
:102C200000500040000C02400010014000440040F1
:102C300088600240EC0200200048004090F83E30DE
:102C4000202B0ED159B152B190F83C30012B08D055
:102C5000012380F83C300023036301F0F9BF012019
:102C600070470220704790F83E30202B0ED159B1AA
:102C700052B190F83C30012B08D0012380F83C3051
:102C80000023036302F02EB8012070470220704732
:102C900010B5044600680D49884203D10C480078FD
:102CA00000F0BCFD0B492068884203D10A48007837
:102CB00001F026FA012206490848FFF7D4FFBDE8D3
:102CC0001040012204490648FFF7CDBF0010014023
:102CD00041000020004C0040AC00002020020020F9
:102CE00098010020704700002DE9F843044690F851
:102CF0003D001F4616460D4620284CD1C5B1BEB139
:102D000094F83C00012846D0012084F83C004FF0A4
:102D10000008C4F84080212084F83D00FEF7E2FC62
:102D2000A6848146E684A068B0F5805F03D004E005
:102D30000120BDE8F883206928B12E465FF0000528
:102D400084F83C800EE00026FAE78021204601F05E
:102D5000E6FFA0B9AEB116F8010B21684860E08C1F
:102D6000401EE084E08C4B464FF0000200970028A4
:102D7000EBD14FF04001204601F0D1FF30B10320EC
:102D8000D7E735F8020BC0F30800E6E7202084F807
:102D90003D000020CDE70220CBE77047FEE70000B2
:102DA000074B10B504225A70CBB202B243F2C821CD
:102DB000052000F033FEBDE8104000F0D3BD000058
:102DC00038000020074B10B503225A70CBB202B274
:102DD00041F27C51052000F021FEBDE8104000F0DA
:102DE000C1BD000038000020074B10B501225A7009
:102DF000CBB202B24FF47A61052000F00FFEBDE8BD
:102E0000104000F0AFBD00003800002010B5174C96
:102E1000207801280BD0022815D0032806D10020E5
:102E200000F05AF8012801D10020207010BD0023C5
:102E30006FF0310243F69821052000F0ADFD00F05F
:102E400091FD0220F1E7052000F0D2FC084800883F
:102E5000B0F5027FEAD303202070052000F054FD76
:102E600000F008F8BDE8104001F0D6BA00000020DC
:102E7000420000200C4810B5002141700B4805228B
:102E80004FF47A7302709A22427002228270C170EB
:102E90006B210171014605220548FFF725FFBDE8BA
:102EA00010400A20FEF726B838000020C403002096
:102EB00020020020074B10B502225A70CBB202B29A
:102EC00041F28831052000F0A9FDBDE8104000F076
:102ED00049BD0000380000200246002010B510490E
:102EE0000346012A0AD00F4C2478224305D10E4C08
:102EF0008A68A2420CDA01224A7010BD0B4C8A6823
:102F0000A24201DDFF22F7E74B709FED090A02E0C4
:102F10009FED080A4B7081ED020A012010BD0000F0
:102F2000580000203900002000001B4300000C4224
:102F300000000C4200001B43064B10B500225A70E3
:102F4000CBB202B26421052000F068FDBDE810405C
:102F500000F008BD38000020074B10B505225A705C
:102F6000CBB202B241F28831052000F057FDBDE836
:102F7000104000F0F7BC0000380000201CB53222E1
:102F80000B490C48FFF75AFE0A480068C16841F037
:102F90001001C16008A14FF6FF73D1E90001CDE92E
:102FA0000001052269460348FFF79EFE1CBD000094
:102FB0007E03002064020020FFAA760000000000CB
:102FC00010B5214C207801283CD12048DFED200AA3
:102FD0002149B0F811009FED211A00EE100AB8EE59
:102FE000400A20EE200ADFED1B0A20EE200A84EDC5
:102FF000010AD4ED020A70EE600A10EE900A8842CF
:1030000002DD30EE410A06E010EE900A14498842D3
:1030100003D930EE010A84ED010A10EE100AA06017
:1030200002F000FD41EC100B0E4890ED001B51EC3E
:10303000100B53EC112B01F0E7FF01F0B3FF6060C0
:103040000020207010BD0000180000204C0300205C
:103050000000003800003443000034430000B44353
:10306000000034C3A00000200246002010B50F4924
:103070000346012A08D0002A05D10D4C4A68A24215
:103080000CDA01220A7010BD0A4C4A68A24201DD26
:10309000FF22F7E70B70B1EE040A02E09FED060A8B
:1030A0000B7081ED010A012010BD000058000020C6
:1030B000000050420000A040000050422DE9F041C5
:1030C0002E4E40213046FEF7FBFA00252C4C0127FE
:1030D000A8B940213046FEF7F3FA0028F9D060780D
:1030E00028B10020607020B100F056FB03E0012001
:1030F000F8E700F023FBA770E570257165712021CA
:103100003046FEF7DDFA48B920213046FEF7D8FAFE
:103110000028F9D0A570E77025716571102130463F
:10312000FEF7CEFA88B910213046FEF7C9FA00281A
:10313000F9D014480178491CC9B20170032900D99B
:103140000570A570E5702771657108213046FEF79E
:10315000B7FA002810D108213046FEF7B1FA00284E
:10316000F9D04FF6FF73022207A10848FFF7BCFD14
:10317000A570E57025716771BDE8F081001402400B
:10318000000000206A00002039390000980100206A
:1031900006482B21064B0172417281720173417303
:1031A0008173014613220348FFF79EBD24000020CF
:1031B000FFFF0F00A8020020F0B431232A4A322476
:1031C00033254FF49C76E72818D006DC7B280BD0FB
:1031D00084280CD0D5281BD10CE0B04211D0A0F52A
:1031E0008070413814D110E01372547204E01372ED
:1031F000557208E014725372957209E01472557298
:1032000005E015725372947202E015725472937253
:10321000E72918D006DC7B290BD084290CD0D529CE
:103220001BD10CE0B14211D0A1F58071413914D10C
:1032300010E01373547304E01373557308E01473B0
:103240005373957309E01473557305E01573537345
:10325000947302E0157354739373F0BC034B132201
:1032600001490348FFF740BD24000020FFFF0F0085
:10327000A8020020094808B5016841F40011016066
:103280000068002200F40010009011461020FEF7A4
:1032900097FABDE808401020FEF784BA30380240A3
:1032A0002DE9F04786B014216846FDF7BBF8464883
:1032B0000024016841F010010160016801F0100173
:1032C0000591016841F004010160016801F0040109
:1032D0000591016841F020010160016801F02001C1
:1032E0000591016841F080010160016801F08001F1
:1032F0000591016841F001010160016801F00101DF
:103300000591016841F002010160016801F00201CC
:103310000591016841F00801016000682B4E00F042
:10332000080005900122FF213046FEF7D6F9DFF8AC
:10333000A080002240F281314046FEF7CEF9012202
:1033400006214046FEF7C9F9DFF8889000220221E5
:103350004846FEF7C2F9DFF880A04FF4407701221B
:1033600039465046FEF7B9F9FF2000900125CDE916
:103370000154694630460394FEF7AAF840F28730BC
:103380000090CDE90154694640460394FEF7A0F849
:1033900078208DE8310069464046FEF799F802260C
:1033A0000096CDE90154694648460394FEF790F82B
:1033B00000970396CDE9015469465046FEF788F818
:1033C00006B0BDE8F087000030380240001002402F
:1033D00000140240000002400004024010B596B004
:1033E00000240F9410941194129413941C21684695
:1033F0001494FDF717F8202107A8FDF713F83448B7
:1034000032490160A721C0E90114C721C0E90314B2
:103410008021C0E90541FEF739FD08B1FDF7A2FDA5
:103420004FF480500F900FA92948FEF7F5FD08B121
:10343000FDF798FD2648FEF791FF08B1FDF792FDD4
:10344000139413A922481494FEF7D8FC08B1FDF791
:1034500089FD00940194029403940494059400223D
:1034600069461B480694FEF74FFF08B1FDF77AFD49
:10347000042269461648FEF747FF08B1FDF772FDC2
:10348000082269461248FEF73FFF08B1FDF76AFDC2
:103490000C2269460E48FEF737FF08B1FDF762FDC2
:1034A0000794089409944FF400500A94CDE90B4016
:1034B00007A907480E94FEF777FC08B1FDF752FD07
:1034C0000348FEF7CBFE16B010BD0000000001401F
:1034D000C000002010B58EB0002407940894099411
:1034E0000A940B941C2168460C94FCF79BFF2B4814
:1034F000294901605321C0E9011444F61F61C0E964
:10350000031480218161FEF7C1FC08B1FDF72AFD9B
:103510004FF48050079007A92048FEF77DFD08B1C1
:10352000FDF720FD1D48FEF7ADFF08B1FDF71AFDC0
:103530000B940BA919480C94FEF760FC08B1FDF739
:1035400011FD6020CDE90004029400226946134871
:103550000494FEF731FF08B1FDF704FD042269462B
:103560000E48FEF729FF08B1FDF7FCFC082269466A
:103570000A48FEF721FF08B1FDF7F4FC0C2269466A
:103580000648FEF719FF08B1FDF7ECFC0348FEF70B
:1035900065FE0EB010BD00000004004008010020D0
:1035A0001CB500240F4800940D490194016042F2BB
:1035B000CF01C0E901146321C16080218161FEF760
:1035C00065FC08B1FDF7CEFC0094694605480194FE
:1035D000FEF714FC002801D0FDF7C4FC1CBD000060
:1035E00000100040500100200C4810B50A4901604D
:1035F0004FF4E1314160002181600C22C160C0E9DB
:1036000004128161C161FFF7BBF9002803D0BDE856
:103610001040FDF7A7BC10BD004C004098010020F1
:103620000C4810B50A4901604FF4E13141600021B6
:1036300081600C22C160C0E904128161C161FFF7A1
:103640009FF9002803D0BDE81040FDF78BBC10BDEA
:1036500000500040DC0100200C4810B50A49016010
:103660004FF4E1314160002181600C22C160C0E96A
:1036700004128161C161FFF783F9002803D0BDE81E
:103680001040FDF76FBC10BD00100140200200206B
:103690000C4810B50A4901604FF4E1314160002146
:1036A00081600C22C160C0E904128161C161FFF731
:1036B00067F9002803D0BDE81040FDF753BC10BDEA
:1036C00000440040640200200C4810B50A49016023
:1036D0004FF416514160002181600C22C160C0E9A5
:1036E00004128161C161FFF74BF9002803D0BDE8E6
:1036F0001040FDF737BC10BD00480040A802002074
:10370000FEE700000B4910B50870F3204870AB20AD
:1037100088700020C87008716B2048714FF47A736C
:1037200006220548FFF7E0FABDE810400A20FDF741
:10373000E1BB0000C40300202002002010B50120DE
:10374000FFF7E0FF0220FFF7DDFF0320FFF7DAFFBE
:103750000420FFF7D7FFBDE810400520FFF7D2BFD8
:103760000B4910B50870F3204870AB208870012019
:10377000C870002008716B2048714FF47A730622DC
:103780000448FFF7B1FABDE810400A20FDF7B2BBCC
:10379000C40300202002002010B50120FFF7E0FF45
:1037A0000220FFF7DDFF0320FFF7DAFF0420FFF719
:1037B000D7FFBDE810400520FFF7D2BF0A4810B57B
:1037C0000068C16841F02001C16001220749064834
:1037D000FFF749FA002000F097F86420FDF78AFB14
:1037E000BDE81040FFF7D8BF2002002041000020B4
:1037F000084910B50870272048706B2088704FF476
:103800007A7303220448FFF76FFABDE810401420D2
:10381000FDF770BBC403002020020020F0B5384A39
:10382000012411461779CB78591CCEB23549C7B15E
:103830000225012F1ED0022F12D1D07801EB4000BB
:1038400030F8023C00206B2B1DD01071D070157029
:103850005FF0000221F81200521CD2B20A2AF9D3FA
:10386000F0BD012801D00528FAD1147121F8130008
:10387000D670F0BD21F81300D6700A2E01D26B2845
:10388000F7D11571D9E7D07010710B88012B02D0D8
:10389000052B10D01AE04B88FD2B17D18B889F2B5E
:1038A00014D114705FF0000221F81200521CD2B241
:1038B000042AF9D3F0BD4B88FD2B02D0272B18D05A
:1038C00004E08B889F2B01D1937843B15FF0000215
:1038D00021F81200521CD2B20A2AF9D3F0BD94701A
:1038E0005FF0000221F81200521CD2B2042AF9D370
:1038F000F0BDC888097940EA01205081F0BD000080
:1039000038000020B00300202DE9F041134C05469B
:103910006B262070FE2060709820A0700020E07060
:103920004FF47A7726713B46052221460C48FFF773
:10393000DBF90A20FDF7DEFA25700A2060706D20A1
:10394000A070E6703B46042221460548FFF7CCF9FB
:10395000BDE8F0410A20FDF7CDBA0000C403002005
:10396000200200200A4810B500210170FF2141709B
:10397000662181706B21C17001464FF47A73042275
:103980000448FFF7B1F9BDE810400A20FDF7B2BACC
:10399000C40300202002002070B50446104600F049
:1039A000BDF885B21A48FD26012C0470467005D07A
:1039B000032C03D0002A03DB012202E0002AFBDBF8
:1039C000002282702A0AC270057143710A0E827148
:1039D0000A0CC2710A0A0272417200258572012125
:1039E000C1726B2101734FF47A730D2208490948A3
:1039F000FFF77AF9012C05D1074C0A202570FDF755
:103A000079FA2570BDE870400A20FDF773BA00000E
:103A1000C4030020200200203800002070B50446B6
:103A2000104600F07BF885B22248FD26012C047078
:103A3000467005D0032C03D0002A03DB012202E0EC
:103A4000002AFBDB002282702A0AC27005714371D2
:103A50000A0E82710A0CC2710A0A027241720121B5
:103A60008172C1726B2101734FF47A730D22114977
:103A70001148FFF739F90A20FDF73CFA0D4A0F4BC0
:103A80000021143A012C0BD0052C08D1002099708C
:103A900022F81010401CC0B20428F9D3997070BDF0
:103AA0000020197022F81010401CC0B20428F9D36D
:103AB00070BD0000C4030020200200203800002058
:103AC00070B50346084600F029F884B21148F6257F
:103AD000012B0370457005D0032B03D0002903DBB5
:103AE000012102E00029FBDB00218170210AC17065
:103AF00004714271012181716B21C1714FF47A739C
:103B0000082204490448FFF7EFF8BDE870400A2096
:103B1000FDF7F0B9C403002020020020002800DADD
:103B200040427047FEE770B500240021204600F0B7
:103B30009DF90025002000F050FA6D1CEDB2802D9B
:103B4000F8D3641CE4B2082CEFD370BD10B5094C57
:103B5000012211022046FDF7C0FD0A20FDF7B7F94A
:103B6000012251022046FDF7B8FDBDE810400A20B1
:103B7000FDF7ADB9000402402DE9F0471B4E0024CB
:103B800007464FF080084FF40079B51528FA04F283
:103B90003A4049463046FDF7A0FD0A20FDF797F967
:103BA000012229463046FDF798FD0A20FDF78FF9DE
:103BB000002229463046FDF790FD0A20FDF787F9DF
:103BC000641CE4B2082CE1D3012229463046FDF7FB
:103BD00084FD0A20FDF77BF9002229463046FDF7D7
:103BE0007CFDBDE8F0470A20FDF771B900040240F2
:103BF00070B50122114D540221462846FDF76DFD96
:103C00000A20FDF764F90122160231462846FDF725
:103C100064FD0A20FDF75BF9002221462846FDF7E6
:103C20005CFD0A20FDF753F9002231462846FDF7D6
:103C300054FDBDE870400A20FDF749B90004024078
:103C400070B5114D4FF40074002221462846FDF74F
:103C500044FD0A20FDF73BF90220FDF769F9012236
:103C600011022846FDF739FD0A20FDF730F901223F
:103C700021462846FDF731FD0A20FDF728F9BDE869
:103C800070400220FDF754B90004024010B5002036
:103C90004FF47A720021491C9142FCD3401C90429F
:103CA000F8D3FFF753FFAE2000F086F9D52000F0DF
:103CB00083F9802000F080F9A82000F07DF93F20F2
:103CC00000F07AF9D32000F077F9002000F074F9C1
:103CD000402000F071F9A12000F06EF9C82000F03A
:103CE0006BF9DA2000F068F9122000F065F9812004
:103CF00000F062F9CF2000F05FF9D92000F05CF904
:103D0000F12000F059F9DB2000F056F9302000F0E6
:103D100053F9A42000F050F9A62000F04DF98D20B1
:103D200000F04AF9142000F047F9AF2000F044F900
:103D3000BDE81040FFF7F7BE0246012000E0504307
:103D4000491EFCD27047000010B5012131A208467F
:103D500000F01FF93048012303210278184600F0D3
:103D6000CBF82EA20521012000F013F92C480123E5
:103D700007210278184600F0BFF82AA20921012085
:103D800000F007F9284803230B2190ED000A0120D9
:103D9000BDEEC00A10EE102A00F0CFF823A20121D8
:103DA000022000F0F6F82348022306210278184684
:103DB00000F0A2F82048012309210278022000F037
:103DC0009BF81EA20121032000F0E3F81D48032305
:103DD0000621B0F90020184600F0AFF81A48032376
:103DE0000B21B0F90020184600F0A7F8174801236E
:103DF0000F210278042000F07FF815484078012850
:103E000006D014A20121BDE81040042000F0C1B882
:103E100013A2F7E7482000003A00002043200000EA
:103E200038000020592000001C0000205461736BF2
:103E30003A000000680000206900002044617461BD
:103E40003A000000780000207A0000206A0000207C
:103E5000000000204D6F746F72204F464600000036
:103E60004D6F746F72204F4E2000000010B50C464D
:103E700040F0B00000F0A0F8102040EA141000F06C
:103E80009BF804F00F00BDE8104000F095B800006A
:103E90002DE9F0410746CE004000083E801E154641
:103EA0004FF0FF38F1B2C0B2FFF7E0FF1148002435
:103EB00000EB05152819A0F5805090F8000E00F0D1
:103EC0008CF8641CE4B2082CF4D308EB4700F1B280
:103ED000C0B2FFF7CBFF00242819A0F5805090F85E
:103EE000080E00F07AF8641CE4B2082CF4D3BDE8A4
:103EF000F08100003A5B00082DE9F04700241D46E0
:103F00001646884681460A2713E0291B0A20491EC7
:103F1000FFF712FFB6FBF0F0B0FBF7F107FB110261
:103F200008EB0400C1B248463032FFF7B1FF641C11
:103F3000E4B2AC42E9D3BDE8F0872DE9F0471E4674
:103F400014008846814604D42B22FFF7A1FF2546A2
:103F500003E02D22FFF79CFF654200240A2714E0AE
:103F6000311B0A20491EFFF7E7FEB5FBF0F0B0FB5E
:103F7000F7F107FB110208EB0400401CC1B24846F0
:103F80003032FFF785FF641CE4B2B442E8D3BDE8E9
:103F9000F0872DE9F04115460E460746002406E05D
:103FA0003019C1B23846FFF773FF641CE4B22A5DD2
:103FB000002AF5D1BDE8F08110B50446FFF718FEE0
:103FC0007820FFF7D9FD0020FFF7D6FD2046FFF748
:103FD000D3FDBDE81040FFF733BE10B50446FFF730
:103FE00007FE7820FFF7C8FD4020FFF7C5FD2046FB
:103FF000FFF7C2FDBDE81040FFF722BE30B5374CD9
:104000002078012868D1631D5878FCF7DBFC054651
:104010001878FCF7D7FC00EB800005EB400004F1BA
:104020000C03607018782B2802D02D2812D024E0C1
:104030005878FCF7C7FC642110FB01F59878FCF771
:10404000C1FC00EB800005EB4005D878FCF7BAFC1A
:10405000284411E05878FCF7B5FC642110FB01F509
:104060009878FCF7AFFC00EB800005EB4005D878B2
:10407000FCF7A8FC284440422081184B10331878E4
:104080002B2802D02D2812D024E05878FCF79AFC77
:10409000642110FB01F59878FCF794FC00EB80009C
:1040A00005EB4005D878FCF78DFC284411E05878E2
:1040B000FCF788FC642110FB01F59878FCF782FC82
:1040C00000EB800005EB4005D878FCF77BFC28442A
:1040D000404260810020207030BD0000A800002018
:1040E00005480068C16841F02001C1600122034910
:1040F0000148FEF7B8BD000098010020AC00002088
:10410000F0B525494FF0010E01F10C06CC78371DB2
:10411000002201F1050C6CB10B469B785D1CEDB2E1
:10412000012C22D0022C29D0032C26D123282DD0DB
:10413000F85426E0402820D1087800281DD13254B8
:10414000401CC0B20428FAD300203A54401CC0B22C
:104150000428FAD35FF000000CF80020401CC0B225
:104160000228F9D381F803E006E0212802D00CF8F8
:10417000030006E0022007E08A70F0BD7C2802D030
:10418000F0548D70F0BD0320C870F5E78A70CA70D6
:1041900081F800E0F0BD0000A8000020704700009A
:1041A0002DE9F05F9A46634C03467320E0800027B8
:1041B000E078894693460125F8B1DFF87C812146F5
:1041C00000260A7898F8001001281DD0022821D076
:1041D000032843D0042845D0052850D0062854D0C1
:1041E0004FF0090908286AD0072878D0092873D029
:1041F0000A2872D00B2871D098E051461046FEF77D
:104200009BFE2570E57091E0012901D0002A24D1A0
:10421000022038E0012920D123B1012B04D0022B48
:1042200004D007E0002002E0012000E0022000F0BE
:10423000E3FD05460120FEF717FF06460020FEF7C6
:104240004BFE012D72D1012E70D101286ED10320B9
:10425000E07051465846FEF72DFE67E0012965D112
:1042600004202AE00020FEF7FFFE01285ED1052091
:10427000E07051465846FEF75FFE257056E0012972
:1042800000D03ABB0620E07036E00120FEF724FEA5
:1042900001284BD1B9F1000F03D0B9F1010F07D0BC
:1042A00044E051465846FEF77BFD2570072004E0A8
:1042B00051465846FEF786FD0820E07036E00020A3
:1042C00000F09AFD98F8001001292FD101282DD176
:1042D00084F803902AE002E010E020E024E00020CF
:1042E00000F08AFD98F80010012901D1012801D0C1
:1042F0002078D8B984F80390267017E00120FEF7E3
:10430000B3FE012812D10A20E07051465846FEF74C
:1043100013FE2570C820FCF7EDFD022706E00129F9
:1043200000D01AB90B20AEE7E67001273846BDE889
:10433000F09F0000900000203A000020704700002D
:10434000334B00B593F900009FED320A012805D1E7
:10435000D3ED010A70EE800AC3ED010A401C05D1BD
:10436000D3ED010A70EEC00AC3ED010A93F9010012
:10437000012805D1D3ED020A70EE800AC3ED020ACE
:10438000401C05D1D3ED020A70EEC00AC3ED020A4B
:1043900093F90200012805D1D3ED030A70EE800ADB
:1043A000C3ED030A401C02D093ED030A05E0D3EDF0
:1043B000030A30EEC00A83ED030ABCEEC00A10EE19
:1043C000100A80B200EE100A0020B8EE400A00F099
:1043D00047F893ED020ABCEEC00A10EE100A80B254
:1043E00000EE100A0120B8EE400A00F039F893ED13
:1043F000010A5DF804EBBCEEC00A10EE100A80B2B0
:1044000000EE100A0220B8EE400A00F029B80000C1
:10441000580000206666A63F10B500210D48FEF743
:1044200061F80C210B48FEF75DF808210948FEF7FA
:1044300059F89FED090A002000F012F89FED070AD5
:10444000012000F00DF8BDE81040B1EE040A022092
:1044500000F006B80801002000009A4200001B434B
:104460003149DFED2E0A9FED2E1ADFED2E1A096875
:1044700058B1012824D0022821D110EE100A2B4A6D
:10448000904238DB9FED2A0A3CE010EE100A294AE0
:10449000904202DB9FED280A06E010EE100A274A40
:1044A000904201DCB3EE020A20EE200AC0EE010ABF
:1044B00030EEA10ABCEEC00A10EE100A4863704745
:1044C00010EE100A1E4A904202DB9FED1E0A06E023
:1044D00010EE100A1C4A904201DC9FED1C0A20EEEF
:1044E000200AC0EE010A30EEA10ABCEEC00A10EEAE
:1044F000100A0864704710EE100A154A904201DC59
:10450000B1EE040A20EE200AC0EE010A30EEA10A44
:10451000BCEEC00A10EE100AC86370470000FA44EF
:10452000000034430000FA4308010020000050421C
:104530000000504200000843000008430000904182
:1045400000001B4300001B4300000C4200000C4213
:104550000000A040FDF7CCB830B593B030216846DC
:10456000FBF760FF14210CA8FBF75CFF1D4800253A
:10457000016841F080510160006800F080501190A6
:104580001948016841F4804101600068022400F488
:104590008040119001200090000401908001CDE93D
:1045A000064008AA0420A82182E813000B90684660
:1045B000FDF722FA08B172B6FEE70CA90F2081E8D8
:1045C00031004FF4A0500F904FF48050109005210F
:1045D0000CA8FDF727F9002801D072B6FEE713B04A
:1045E00030BD0000403802400070004002480168C1
:1045F00041F470010160704788ED00E00148FDF76B
:104600007ABD0000C00000200148FDF774BD000025
:10461000C00000200148FDF76EBD0000C000002072
:104620000148FDF768BD0000C00000200148FDF70B
:1046300062BD000050010020F0B50268254C264DF7
:10464000264E274F274B4FF0804CA04209D06045A3
:1046500007D0A84205D0B04203D0B84201D098425A
:1046600004D122F0700E4A6842EA0E02A0421BD02A
:10467000604519D0A84217D0B04215D0B84213D027
:10468000984211D0184DA8420ED0184DA8420BD018
:10469000174DA84208D0174DA84205D0164DA84284
:1046A00002D0164DA84203D122F44075CA682A43AD
:1046B0004D6922F080022A4302608A68C2620A6859
:1046C0008262A04201D0984201D1096901630121AF
:1046D0004161F0BD000001400004004000080040BE
:1046E000000C004000040140004001400044014033
:1046F0000048014000180040001C0040002000401D
:1047000010B501F01F030121046A99408C43046233
:10471000016A9A401143016210BD10B5846842EAF3
:10472000032224F47F440A432243826010BD82683E
:1047300022F070020A4342F00701816070470000D6
:10474000F0B5026A22F001020262036A42688469DB
:10475000124E24F073050C682C4323F002058B687D
:104760002B430D4DA84201D0B04205D123F00807DC
:10477000CB683B4323F00403A84201D0B04205D1EB
:104780004D6922F4407215438A692A43426084616C
:10479000496841630362F0BD00000140000401402C
:1047A000F0B5026A22F010020262026A436884696C
:1047B0000D6824F4E64444EA05248D6822F02002C2
:1047C00042EA05120F4D104EA84201D0B04206D168
:1047D000CF6822F0800242EA071222F04002A8428B
:1047E00001D0B04207D14D6923F4406343EA850309
:1047F0008D6943EA8503436084614968816302628D
:10480000F0BD00000000014000040140F0B5026A64
:1048100022F480720262026A4368C46922F4007260
:1048200024F073050C68124E2C438D6842EA052271
:104830000E4DA84201D0B04206D1CF6822F40062EA
:1048400042EA072222F48062A84201D0B04207D196
:104850004D6923F4405343EA05138D6943EA051378
:104860004360C4614968C1630262F0BD0000014059
:104870000004014030B5026A22F480520262046AE8
:104880004268C3690D6823F4E64343EA05238D6853
:1048900024F4005444EA0534084DA84202D0084DDF
:1048A000A84204D14D6922F4804242EA8512426056
:1048B000C36149680164046230BD0000000001402A
:1048C0000004014010B5036A046A24F00104046284
:1048D000846924F0F00444EA021423F00A020A4333
:1048E0008461026210BD10B5036A23F010030362F5
:1048F0008369046A23F4704343EA023224F0A0037C
:1049000043EA01118261016210BD00000148FDF718
:10491000D5BE0000980100200148FDF7CFBE000081
:10492000DC01002010B5806B0021C185C184FDF73A
:10493000C3FE10BD70B5846B2068406994F83D10CB
:10494000C0F3C0100025212904D118B1E584204608
:1049500000F08AF82068406994F83E10C0F3801097
:10496000222904D118B1E585204600F056F8206CC4
:1049700040F0100020642046FDF79EFE70BD10B58B
:104980000146806B09680968C9052FD40021C185DB
:1049900001680C3151E8002F22F4807241E80023B5
:1049A000002BF5D10168143151E8002F22F00102EB
:1049B00041E80023002BF5D10168143151E8002FA4
:1049C00022F0400241E80023002BF5D1202180F89D
:1049D0003E10016B012909D101680C3151E8002F0B
:1049E00022F0100241E80023002BF5D1016B0129D0
:1049F00002D0FEF74DF910BD818DFDF724FE10BDEC
:104A000010B5806B016B012902D0FEF76BF910BD68
:104A1000818D4908FDF717FE10BD01680C3151E882
:104A2000002F22F4907241E80023002BF5D1016899
:104A3000143151E8002F22F0010241E80023002B3D
:104A4000F5D1016B012909D101680C3151E8002F22
:104A500022F0100241E80023002BF5D1202180F83C
:104A60003E1000210163704701680C3151E8002FAE
:104A700022F0C00241E80023002BF5D1202180F86C
:104A80003D10704708B590F83E10222901D0022051
:104A900008BD82684FF480539A4201D1016921B167
:104AA000816A9A421BD04AB10AE00268816A526860
:104AB000C2F308020A80816A891C08E0026972B1A7
:104AC0000268526802F07F020A70816A491C8162A2
:104AD000C18D491E0904090CC18503D019E0026883
:104AE0005268F1E70168CA6822F02002CA600168D2
:104AF000CA6822F48072CA6001684A6922F0010221
:104B00004A61202180F83E10016B012903D0FEF795
:104B1000BFF8002008BD0021016301680C3151E895
:104B2000002F22F0100241E80023002BF5D101688C
:104B30000A68D20602D50A6849680091818DFDF79E
:104B400082FDE6E770B5044600680169E26821F479
:104B50004051114301612169A068E269084361691C
:104B6000114308432168CA6849F20C639A4302431F
:104B7000CA6020684169A26921F440711143416112
:104B800031492068884202D03049884202D1FCF77E
:104B9000F3FE01E0FCF7E0FEE26900231921642541
:104BA0003226B2F5004F626828D0A0FB0101930FB6
:104BB0009200FBF759FB0146B0FBF5F06FF01802CD
:104BC000504301EB800006EB0010B0FBF5F000F065
:104BD000F002B1FBF5F002EB0012B1FBF5F06FF063
:104BE0001803584301EB800006EB0010B0FBF5F012
:104BF00000F00F0021681044886070BDA0FB010127
:104C000092185B41FBF730FB0146B0FBF5F0020167
:104C1000B1FBF5F06FF01803584301EB800006EB91
:104C2000C000B0FBF5F000F0F80002EB4002B1FB71
:104C3000F5F0584301EB800006EBC000B0FBF5F047
:104C400000F00700D6E7000000100140001401400A
:104C500038B581628285002513460446056422200A
:104C600084F83E00A26B1C48D063A26B1B48106402
:104C7000A26B1B48D064A06B0A4605652168A06B37
:104C8000091DFCF7EDFB206801684068009084F87E
:104C90003C50206948B120680C3050E8001F41F4B6
:104CA000807140E80012002AF5D12068143050E8E5
:104CB000001F41F0010140E80012002AF5D12068F0
:104CC000143050E8001F41F0400140E80012002A73
:104CD000F5D1002038BD00007F490008014A0008D6
:104CE0003549000881628285C28500210164222243
:104CF00080F83E2080F83C10016921B10168CA6843
:104D000042F48072CA6001684A6942F001024A6155
:104D10000068C16841F02001C160002070472DE9A2
:104D2000F041984617460E460446069D27E0681C4B
:104D300025D02DB1FCF7D6FCA0EB0800A8421ED967
:104D400020680C3050E8001F21F4D07140E80012B8
:104D5000002AF5D12068143050E8001F21F001012D
:104D600040E80012002AF5D1202084F83D0084F8A4
:104D70003E00002084F83C000320BDE8F08120685C
:104D8000006836EA000004D00020B842CFD00020EE
:104D9000F3E70120F9E700000148FDF78FBC0000B0
:104DA0002002002010B50448FDF788FCBDE8104043
:104DB000014800F009B80000640200200148FDF736
:104DC0007DBC0000A80200200849094A82B0096899
:104DD000914209D10A68D243D20605D40A684968CB
:104DE000009102B0FDF79EBD02B070476402002042
:104DF00000440040FEE7000070B51A49024600205A
:104E00000C78451E18490346012A09D00126022ABA
:104E100012D0002A0BD1154CCA68A24212DB1AE04C
:104E2000022C04D0124CCA68A24201DD8D7070BD04
:104E30008B70B3EE020A0AE0022CF8D00D4CCA685F
:104E4000A24201DA8E7070BD9FED0B0A8B7081ED6E
:104E5000030A012070BD094CA242E7DC8B709FED74
:104E6000080AF4E7390000205800002000009242B0
:104E70000000904100000843000008430000A242E7
:104E800000009A420907090E002804DB00F1E02027
:104E900080F80014704700F00F0000F1E02080F867
:104EA000141D704700B52DED048BB0EE409AF0EE66
:104EB000609A83B051EC190B00F0FEFB41EC180B2B
:104EC00018EE100A18EE901A8DED008B002818BF0E
:104ED0000120084320F00040C0F17F6000F1E04075
:104EE000C00F14D019EE101A19EE900A8DED009B28
:104EF000002918BF0121084320F00040C0F17F6065
:104F000000F1E040C00F04BF0120FBF7BAFAB0EE99
:104F1000480A03B0F0EE680ABDEC048B00BD000047
:104F2000FCF7EEFBFFF718FBFEF7BAF9FEF7A2F964
:104F3000FEF754FAFEF7CEFAFEF732FBFEF754FB0B
:104F4000FEF76EFBFEF788FBFEF7A2FBFEF7BCFB4D
:104F5000A820FBF7C3FFFEF799FEFEF72FFC0F48D2
:104F6000FDF71AF8FEF70AF8FFF7BAF8FEF710F99E
:104F70004FF47A70FBF7BEFF0949012081F8000069
:104F8000FFF73CF8FEF7E0FEFEF798F8FBF73AFD76
:104F9000FEF716F8FDF73AFFF2E700005001002097
:104FA0000000002021F00042A2F16052B2F5801F03
:104FB00001F0004328BFD2F17F6C0BD95FEA001CDF
:104FC00043EAC20242EB507018BF704728BF20F07E
:104FD00001007047B2F5801FBCBF184670474FEA0A
:104FE000410C1CF5001F02D2084600F091BD70B5BF
:104FF00000F00EFB00000089FFF7F6BF4FF0004005
:10500000A0F580007047000010B591EA030F48BF7B
:1050100083F0004300F12484841A71EB030C05D261
:10502000121943EB0C03001B61EB0C01DFF824E1C8
:105030004FEA1154A4EB135C1EEA430F18BF9EEA1B
:10504000445F73D023EA0E03DCF1200E21EA045101
:1050500043F4801332D322FA0CFE10EB0E0023FA35
:105060000CFE41EB0E01CCF1200E03FA0EFE10EB0C
:105070000E0051F10001B1F5801FCCF1200E32D2AB
:1050800001EB045112FA0EF2BDE8104058BF704710
:10509000401C38BF5FEA420218BF7047002814BFA7
:1050A00020F0010041F100014FEA410313F5001F18
:1050B00038BF7047A1F1C04100F0F8BA012A43EBB4
:1050C0000302ACF1200CDCF11F0E32BF4FF0000EDA
:1050D00023FA0CF310EB030041EB0451B4EB115F26
:1050E000D0D0A1EB045101F5801149085FEA3000EE
:1050F00001EB04510ED350F1000038BF12FA0EFE3E
:1051000008D1BDE81040C9E7401C38BF5FEA420241
:10511000CAD1C3E7BDE810404FEA410313F5001FB1
:1051200038BF7047A1F1C04100F0C0BA9EEA445FA9
:1051300008D011EA5E0FBDE8104004BF01F0004145
:1051400000207047BDE8104070B500F061FA00BF64
:1051500064FBBE3E0000E0FF2DE9C04130B4DFF843
:10516000A0C23CEA111418BF3CEA131400F0EC8012
:1051700081EA03051CEA111444EAD57418BF1CEA3D
:10518000131500F0C780A4EB05044FF0004545EA75
:10519000C12145EAC32341EA505143EA525304F185
:1051A0007F74994204F500344FEAC0204FEAC222CE
:1051B00008BF904200F09C804FEA13650FF2401642
:1051C000765D4FEA134506FB05F7C7F1807706FBCE
:1051D00007F74FEAD737A7FB03687642C8F5803850
:1051E000A7FB06CE38BFA8F1010807FB08E64FF081
:1051F000000EA6FB028CE6FB03CEDCF1000CCEF128
:10520000004E38BFAEF1010EA6FB0C584FF0000760
:105210004FF00005E6FB0E87A1FB08C6A0FB07CEFA
:1052200016EB0E0645F10005E1FB076515F1E04EB2
:105230007EBFA4F580345FEA46066D4116F1800713
:1052400045F100054FEA17274FEA066647EA05676A
:10525000A6F1DE46B6F1805F4FEA15251FD9384624
:1052600024F0010C05EBC471BCF1FE6F01EB0C11D5
:1052700002D8F0BCBDE8008124425CBF01F5801E6D
:105280009EEAC47F02D4F0BCBDE80081244238D439
:10529000F0BCA1F1C041BDE8004100F007BA4FEAFF
:1052A000D22242EA43524FEAD323A7FB02864FEAB7
:1052B000D02040EA415007FB03661EEA0E0F4FEA7A
:1052C000D12105FB026658BFA6EB0056B6EB00568F
:1052D0004FEA520E4EEAC37E18EB0E0E56EB530EFB
:1052E000BDD518EB02085E417F1C55F10005B6E7FD
:1052F0004FF480154FF000074FF000064FF0000804
:10530000ADE7F0BC4FF0000001F1C04101F00041F9
:10531000BDE8008111EA0C1F0CEA131500D00CE067
:1053200013EA0C1F00F025804FF00000F0BC81EA6A
:10533000030101F00041BDE80081F0BCBDE800417F
:1053400081EA030100F0B2B9F0BCBDE8004170B5DC
:1053500000F05EF9097EFC3E00F007B881EA030127
:105360004FF0000001F00041704781EA030100F0B6
:105370009DB9F0BCBDE800414FF0000021497047E5
:10538000FFFDFBF9F7F5F4F2F0EEEDEBE9E8E6E40A
:10539000E3E1E0DEDDDBDAD8D7D5D4D3D1D0CFCD91
:1053A000CCCBCAC8C7C6C5C4C2C1C0BFBEBDBCBBCA
:1053B000BAB9B8B7B6B5B4B3B2B1B0AFAEADACABC5
:1053C000AAA9A8A8A7A6A5A4A3A3A2A1A09F9F9E9F
:1053D0009D9C9C9B9A999998979796959594939351
:1053E000929191908F8F8E8E8D8C8C8B8B8A8989E8
:1053F000888887878685858484838382828181806B
:105400000000FF070000F87F4FEA41034FEA5353C3
:10541000A3F58063D3F11E03C8BFD3F1210C0CDDCB
:105420004FF0004242EAC12242EA505232FA03FCF3
:105430008CEAE17CACEBE1707047102BC4BF00201C
:10544000704703F5787CBCF1FF3F04D06FF0004259
:1054500082EA2100704770B500F0DAF849922480A2
:1054600000207047F2E710F0004248BF4042B0FA17
:1054700080F310FA03F10AD0C3F11D0303F5806332
:105480004FEA415002EB035202EBD12170474FF03B
:1054900000007047B0FA80F310FA03F10AD0C3F1AC
:1054A0001D0303F580634FEA41504FEA035202EBBC
:1054B000D12170474FF0000070470000DFF848C16D
:1054C00070B51CEA111E1EBF1CEA13159EEA0C0FD4
:1054D00095EA0C0F00F06F8081EA030423EA4C1375
:1054E0004EEAD47E21EA4C1141F4801143F480133A
:1054F000AE44A1FB024CA0FB0365AEF17F7E3619E2
:1055000055EB0C05A1FB034C4CF10003A0FB021C66
:1055100016EB0C06654153F10003094218BF46F033
:10552000010613F4007F0BD14FEA03314FEA053037
:10553000340341EA155140EA16506FF003020AE0C5
:105540004FEAC3214FEAC520F40241EA555140EA2F
:1055500056506FF0020202EB2E4201EB025585EA33
:10556000CE710AD05FEA440C18BF24F0004450F119
:10557000000041F1000120EAD47040F2FE7C624557
:1055800000D270BDA84214BF4FF080444FF0404499
:10559000002E08BF0024BEF1806FA8BFA1F1C0415A
:1055A000BDE8704080F282804FF0000001F1C04100
:1055B00001F0004170479EEA0C0F0CEA131518BF6A
:1055C00095EA0C0F06D04FF0000081EA030E0EF0B2
:1055D000004170BD00F01CF88900013E00F007B8E2
:1055E00000F009B84FEA430C5FEA5C5C08D081EA3E
:1055F000030100F05BB84FEA410C5FEA5C5CF6D156
:105600004FF00000014970470000FF070000F87FDD
:105610000EF1020E2EF0030E5EF8046B364205D436
:10562000012A43EB030515F5001F12D8012841EBB1
:10563000010C1CF5001F0CD80ED14FEAD17C15F5DA
:10564000001F0CEB4C0C0CF1020C08BF4CEBD37C94
:1056500004E04FF0080C01E04FEAD37C0CEB4C0562
:1056600026FA05F606F00706B6F1040C06D20EEB94
:10567000860CBDE870404CF0010C6047DFE80CF090
:10568000090B02024FF000414FF00000A1F500218C
:1056900070BD19461046012851EB010418BFD4F51E
:1056A000001484BF002001F0004170BD0808A0F57F
:1056B00000114FEA310170472DE9F04101F5801CDE
:1056C000BCF5001FC0F2A9804FEA115C21EA0C5121
:1056D0000CF1FD0C41F480115FEA5C0C0CF5C07C10
:1056E00001D34000494130A4890241EA9051870228
:1056F0008E0E0A0CA45D04FB04F602FB06F6C6F14E
:105700004046A4FB0662F60D46EA422606FB06F476
:10571000A4FB01235242C3F1404338BF5B1EA6FBEA
:1057200002420024E6FB0324D20B42EA4446A6FBD5
:105730000623A1FB02E2A3FB07E4E3FB6142644210
:10574000C2F1404E38BFAEF1010EA6FB04234FF06C
:105750000002E6FB0E32A2FB03463400E2FB626469
:10576000A1FB06E6A4FB07E8E4FB61687642C8F10A
:10577000405838BFA8F10108A2FB06E4A3FB08E5E6
:10578000E2FB6854A1FB05E6A7FB04E8E1FB6486A5
:1057900018F1200556F10006A809A8F11B08B10967
:1057A00008F03F08B8F10A0F40EA86601CD901EB07
:1057B0000C51BDE8F08100BFFCF5EEE8E2DDD8D386
:1057C000CFCBC7C3C0BDB9B6B4B1AEACA9A7A5A372
:1057D000A19F9D9B9A9896959392908F8D8C8B8983
:1057E0008887868584838281A0FB006800FB01F2A4
:1057F00008EB4208B8EB872807D5341858EB0104AA
:10580000D5D5401C51F10001D1E7341A78EB0104E1
:10581000CDD4401E71F10001C9E75FEA4C0C5FEA8C
:105820009C5C0DD105D34FF0000001F00041BDE8B4
:10583000F081BDE8F04170B5FFF7EAFE6DDBFFBE19
:10584000BDE8F0414FF00000004970470000F87FCC
:1058500010B591EA030F48BF83F000433FF5DCAB7E
:10586000841A71EB030C07D212198CF0004C43EB35
:105870000C03001B61EB0C01DFF8A4E14FEA1154AB
:10588000A4EB135C1EEA430F18BF9EEA445F00F0CE
:10589000B08023EA6E03524221EA0451C3EB6E0347
:1058A00038BF5B1EDCF1200E25D322FA0CFE10EB74
:1058B0000E0043FA0CFE41EB0E01CCF1200E03FA70
:1058C0000EFE10EB0E0051F10001CCF1200E29D498
:1058D00012FA0EF201EB0451BDE8104058BF7047B8
:1058E000401C1CBFB2F1004F704700280CBF491C80
:1058F00020F00100704712EB020E43EB030218BFC9
:105900004FF0010E4EEA4202ACF1200CDCF11E0E0B
:1059100054D943FA0CFE10EB0E0051F1FF31CCF1DB
:105920001E0ED5D50EF1010E12FA0EFE404141EBCE
:10593000010101EB445C5FEA5C5C10D910EBDE70A6
:1059400001EB045138BFBEF1004FBDE8104018BF55
:10595000704700280CBF491C20F00100704730D26E
:105960004FEAD42C11F5001124F400641BD0B1FAD5
:1059700081F20B3AA41AA41ED2F12003914030FA0E
:1059800003F31943904001EBCC71002C01EB04515F
:10599000BDE81040A8BF704701F1C0414FF00000C2
:1059A00001F000417047B0FA80F310FA03F100D122
:1059B00010BDE41A173C4805C90AE4E701EB04519D
:1059C00010BD491001EB0451BDE810404FEA300012
:1059D00002E04FF0000170474A0008BF0042F8D0D3
:1059E000B2F5001F28BF704701F000414FF00000E2
:1059F00070479EEA445F07D011EA5E0FBDE8104091
:105A000004BF002100207047BDE8104070B5FFF7CB
:105A1000FFFD00BF40DFF63E83F0004110467047B7
:105A20000000E0FF43004FEAD30C4FEA3C0C434038
:105A30001FBF40070CF1605113F0FE4F70471CF080
:105A4000006F03D100200CF0004170470CF00043C0
:105A500043EA507010B540EACC0000F00EF800BFE9
:105A6000000000924FEA0001FFF720BE4FF0004116
:105A70004FF00000A1F5002170470EF1020E2EF04C
:105A8000030E5EF8044B244204D44FEA4102B2F103
:105A90007F4F11D84FEA4003B3F17F4F0CD80ED19E
:105AA0004FEAD07CB2F17F4F0CEB4C0C0CF1020CA6
:105AB00008BF4CEBD17C04E04FF0080C01E04FEA4A
:105AC000D17C0CEB4C0324FA03F404F00704B4F18A
:105AD000040C06D20EEB840CBDE810404CF0010C17
